:100000000C94EE010C940B020C940B020C940B025A
:100010000C94C3080C949A080C940D020C940B02D7
:100020000C940B020C940B020C9471080C9448086D
:100030000C940B020C940B020C940B020C940B020C
:100040000C940B020C940B020C940B020C940B02FC
:100050000C940B02FFFFFFFFFF00FFFFFFFFFFFFFE
:1000600000FFFFFFFFFFFF00FFFFFFFFFFFF00FF9D
:10007000FFFFFFFFFF00FFFFFFFFFFFF00FFFFFF8E
:10008000FFFFFF00FFFFFFFFFFFF00FFFFFFFFFF7E
:10009000FF00FFFFFFFFFFFF00FFFFFFFFFFFF006D
:1000A000FFFFFFFFFFFF00FFFFFFFFFFFF00FFFF5E
:1000B000FFFFFFFF00FFFFFFFFFFFF00FFFFFFFF4E
:1000C000FFFF00FFFFFFFFFFFF00FFFFFFFFFFFF3E
:1000D00000FFFFFFFFFFFF00FFFFFFFFFFFF00FF2D
:1000E000FFFFFFFFFF00FFFFFFFFFFFF00FFFFFF1E
:1000F000FFFFFF00FFFFFFFFFFFF00FFFFFFFFFF0E
:10010000FF00FFFFFFFFFFFF00FFFFFFFFFFFF00FC
:10011000FFFFFFFFFFFF00FFFFFFFFFFFF00FFFFED
:10012000FFFFFFFF00FFFFFFFFFFFF00FFFFFFFFDD
:10013000FFFF00FF0000000000FFFF00004F000075
:1001400000FF000700070000FF147F147F1400FF6A
:10015000242A7F2A1200FF231308646200FF364915
:1001600055222000FF000503000000FF001C224173
:100170000000FF0041221C0000FF14083E0814008C
:10018000FF08083E080800FF503000000000FF088C
:100190000808080800FF006060000000FF20100849
:1001A000040200FF3E5149453E00FF40427F40406F
:1001B00000FF426151494600FF2141454B3100FF9C
:1001C0001814127F1000FF274545453900FF3C4AAF
:1001D00049493000FF017109050300FF36494949CB
:1001E0003600FF064949291E00FF00363600000090
:1001F000FF005636000000FF081422410000FF14E3
:100200001414141400FF004122140800FF020151CD
:10021000090600FF3E415D551E00FF7E1111117E53
:1002200000FF7F4949493600FF3E4141412200FF1E
:100230007F4141221C00FF7F4949494100FF7F095E
:1002400009090100FF3E4149497A00FF7F0808087B
:100250007F00FF00417F410000FF2040413F01003F
:10026000FF7F0814224100FF7F4040404000FF7F95
:10027000020C027F00FF7F0408107F00FF3E414117
:10028000413E00FF7F0909090600FF3E4151215E02
:1002900000FF7F0919294600FF264949493200FF1E
:1002A00001017F010100FF3F4040403F00FF1F2050
:1002B00040201F00FF3F4038403F00FF63140814F8
:1002C0006300FF070870080700FF615149454300BC
:1002D000FF007F41410000FF020408102000FF00E2
:1002E00041417F0000FF040201020400FF40404042
:1002F000404000FF000003050000FF2054545478E4
:1003000000FF7F4444443800FF384444444400FF25
:10031000384444447F00FF385454541800FF040408
:100320007E050500FF085454543C00FF7F08040478
:100330007800FF00447D4000FFFF2040443D00FF67
:10034000FF7F10284400FFFF417F4000FFFFFF7C3C
:10035000047C047800FF7C0804047800FF384444DF
:10036000443800FF7C1414140800FF081414147C93
:1003700000FF7C08040400FFFF485454542400FF8D
:1003800004043F444400FF3C4040207C00FF1C200C
:1003900040201C00FF3C4030403C00FF4428102817
:1003A0004400FF0C5050503C00FF4464544C440047
:1003B000FF083641410000FF000077000000FF0009
:1003C0004141360800FF08082A1C0800FF081C2AC3
:1003D000080800FFFFFFFFFFFF00FF0011241FBE02
:1003E000CFE5D8E0DEBFCDBF11E0A0E6B0E0E0EBA6
:1003F000FFE102C005900D92A837B107D9F711E0CF
:10040000A8E7B1E001C01D92A83EB107E1F70E9444
:100410005F020C94D60F0C9400001F920F920FB63F
:100420000F9211242F933F938F939F93EF93FF93FA
:1004300020917801222371F480917901E82FF0E076
:10044000EC57FE4F10828F5F809379011DBC1CBC5E
:1004500081E015C02130F1F486B597B59093810104
:100460008093800180917901E82FF0E0EC57FE4FF6
:1004700020838F5F809379011DBC1CBC82E0809338
:1004800078018EB59FB520E430E0822793279FBD89
:100490008EBD0AC0223041F486B597B59093830192
:1004A0008093820110927801FF91EF919F918F913B
:1004B0003F912F910F900FBE0F901F9018958F9224
:1004C0009F92AF92BF92CF92DF92EF92FF920F93E3
:1004D0001F93CF93DF9381E06FEF0E94E60581E0E9
:1004E00064E04FEF0E9408068FB780688FBF80E0FE
:1004F0006FEF0E94E60582E06FEF0E94E60581E063
:1005000063E04FEF0E9408060E94AB070E94EB07D2
:1005100086E90E943A080E9400080E94B1058824DA
:10052000E0908201F09083016091800170918101DF
:100530006E0D7F1D80E090E00E94EC0C5B016C0171
:1005400060E070E080E89FE3A60195010E94BC0B8B
:1005500026EB33EF4DE75DE30E94C20A20E034E270
:1005600044E759E40E94C20A0E94EC08962E00E07B
:1005700010E0C801B7010E94EC0CA60195010E9491
:10058000BC0B20E030E048EC52E40E94C20A0E941A
:10059000EC08E62E882079F5809184018130A1F461
:1005A000C0E0D0E005C0892D6E2D0E940105219686
:1005B000809182019091830169E170E00E945A0F5D
:1005C000C617D70780F34FC0882309F04CC0C0E09E
:1005D000D0E005C0892D6E2D0E94320521968091B4
:1005E00080019091810169E170E00E945A0FC61765
:1005F000D70780F338C0E82DF0E0EC57FE4FE081DC
:10060000E130C1F485E062E00E94E203C0E0D0E0A6
:1006100005C0892D6E2D0E940105219680918201D1
:100620009091830169E170E00E945A0FC617D707C5
:1006300080F319C0EE23B9F482E065E00E94E20382
:10064000C0E0D0E005C0892D6E2D0E9432052196B4
:10065000809180019091810169E170E00E945A0FC0
:10066000C617D70780F383945BCF0895FC01809170
:100670007A018083089508950F931F93682F82E075
:100680000E94F70500E21EE4C8010197F1F780E03F
:1006900060E040E00E947E0680E061E040E00E9471
:1006A0007E0680E062E04FEF0E947E06C80101975F
:1006B000F1F780E062E040E00E947E06C801019709
:1006C000F1F71F910F91089580937B018770886BDC
:1006D0000E943C0308951F93182F80937A01803461
:1006E00060F480E063E04FEF0E947E0680E064E00B
:1006F00040E00E947E06812F0CC080E063E040E075
:100700000E947E0680E064E04FEF0E947E06812F0B
:1007100080548F7380640E943C031F9108951F933F
:10072000182F862F0E946B03812F0E9464031F9154
:10073000089580917B018F5F80937B0160E00E9430
:100740008F0308951F93182F80E063E040E00E941C
:100750007E0680E064E040E00E947E06812F806C8F
:100760000E943C031F9108950F931F93182F80E060
:1007700065E04FEF0E947E0682E0612F0E94F70540
:1007800000E41FE1C8010197F1F780E060E04FEF5E
:100790000E947E0680E061E040E00E947E0680E0EC
:1007A00062E04FEF0E947E06C8010197F1F780E0FA
:1007B00062E040E00E947E06C8010197F1F71F91B8
:1007C0000F9108950F931F93062F861768F4182F23
:1007D000812F60917A010E948F038FEF0E94B403F2
:1007E0001F5F0117A8F70EC0681760F4182F812F3C
:1007F00060917A010E948F038FEF0E94B403115021
:100800001017A8F780917A018F3711F410927A01AE
:100810001F910F9108950E948F0381E00E94B403FD
:1008200008951F93182F60E00E948F03812F60E4CA
:100830000E948F0380E063E04FEF0E947E0680E01D
:1008400064E04FEF0E947E0610E080E00E94B40357
:100850001F5F1134D1F71F9108951F9310E0812F6E
:100860000E9411041F5F1830D1F780E060E00E9401
:100870008F0310927A0110927B0180E063E040E0E8
:100880000E947E0680E064E040E00E947E061F91A8
:1008900008951F93CF93DF93E82F8A3069F58091F5
:1008A0007B018F5F80937B018F5F60E00E948F03ED
:1008B0002AC080917A010E946B0380917B010E9483
:1008C0006403FE01219614911F3FE9F080917A01A3
:1008D000803849F480917B01873019F40E942D04FF
:1008E00002C00E949903812F0E94B40380917A0173
:1008F0008F5F80937A01DDCF87E0E89FE0011124CC
:10090000CC5ADF4FD6CFDF91CF911F910895CF936F
:10091000DF93EC0103C021960E944904888188235B
:10092000D1F7DF91CF9108950F931F93DF93CF936A
:10093000CDB7DEB764970FB6F894DEBF0FBECDBF5C
:100940008E010F5F1F4FB8014AE050E00E94A50FD3
:10095000C8010E94870464960FB6F894DEBF0FBEEC
:10096000CDBFCF91DF911F910F91089580917A01B2
:1009700090E00E94940480E20E94490480E20E9478
:10098000490480917B0190E00E94940480E20E94DF
:10099000490480E20E94490480917A01803849F438
:1009A00080917B01873019F40E942D0408950E94E4
:1009B000990308950F931F93182F062F80E060E08E
:1009C0000E948F0380E690E00E948704812F90E0D0
:1009D0000E94940480E20E94490488E690E00E940C
:1009E0008704802F90E00E94940480E593EC20E936
:1009F00031E0F9013197F1F70197D9F71F910F9184
:100A000008950F931F93182F062F80917A01803439
:100A100048F480E063E04FEF0E947E0680E064E0EF
:100A200040E008C080E063E040E00E947E0680E095
:100A300064E04FEF0E947E0682E00E94640381E042
:100A40000E94B40380917A018F5F80937A0180388D
:100A500031F4812F602F0E94DA040E942D041F912F
:100A60000F9108950F931F93182F062F80917A01ED
:100A7000803448F480E063E04FEF0E947E0680E01F
:100A800064E040E008C080E063E040E00E947E0651
:100A900080E064E04FEF0E947E0685E00E946403E0
:100AA00080E80E94B40380917A018F5F80937A017D
:100AB000803831F4812F602F0E94DA040E942D04C7
:100AC0001F910F91089580917A01803448F480E05D
:100AD00063E04FEF0E947E0680E064E040E008C0E3
:100AE00080E063E040E00E947E0680E064E04FEF3B
:100AF0000E947E0685E00E94640380E80E94B403A1
:100B000080917A018F5F80937A01803811F40E947E
:100B10002D04089580917A01803448F480E063E0E8
:100B20004FEF0E947E0680E064E040E008C080E075
:100B300063E040E00E947E0680E064E04FEF0E94A8
:100B40007E0682E00E94640381E00E94B4038091EB
:100B50007A018F5F80937A01803811F40E942D040E
:100B6000089580E06FEF0E94E60582E06FEF0E943B
:100B7000E60580E065E04FEF0E947E0680E063E0DE
:100B80004FEF0E947E0680E064E04FEF0E947E06F9
:100B900088EC90E020E931E0F9013197F1F7019715
:100BA000D9F78EE390E00E943C0380E490E00E943D
:100BB0003C0388EB90E00E943C0380EC90E00E94B4
:100BC0003C038FE390E00E943C030895813049F09C
:100BD000813028F0823039F0833041F406C06ABB9E
:100BE000089567BB089564BB089561BB0895813083
:100BF00049F0813028F0823039F0833041F406C06A
:100C00006BBB089568BB089565BB089562BB0895EA
:100C1000683008F072C04F3FB1F5813099F08130F3
:100C200030F08230D1F0833009F067C021C02AB3A0
:100C300081E090E002C0880F991F6A95E2F7282BA7
:100C40002ABB089527B381E090E002C0880F991F66
:100C50006A95E2F7282B27BB089524B381E090E042
:100C600002C0880F991F6A95E2F7282B24BB0895CC
:100C700021B381E090E002C0880F991F6A95E2F7E6
:100C8000282B21BB08954423C1F5813099F0813090
:100C900028F08230D9F0833081F524C02AB381E076
:100CA00090E002C0880F991F6A95E2F78095822331
:100CB0008ABB089527B381E090E002C0880F991F96
:100CC0006A95E2F78095822387BB089524B381E07B
:100CD00090E002C0880F991F6A95E2F78095822301
:100CE00084BB089521B381E090E002C0880F991F72
:100CF0006A95E2F78095822381BB0895683008F0F9
:100D000070C04423B1F1813099F0813030F08230ED
:100D1000D1F0833009F065C021C02BB381E090E0B1
:100D200002C0880F991F6A95E2F7282B2BBB089504
:100D300028B381E090E002C0880F991F6A95E2F71E
:100D4000282B28BB089525B381E090E002C0880FCE
:100D5000991F6A95E2F7282B25BB089522B381E0FD
:100D600090E002C0880F991F6A95E2F7282B22BBFA
:100D70000895813099F0813028F08230D9F08330A5
:100D800081F524C02BB381E090E002C0880F991F49
:100D90006A95E2F7809582238BBB089528B381E0A2
:100DA00090E002C0880F991F6A95E2F78095822330
:100DB00088BB089525B381E090E002C0880F991F99
:100DC0006A95E2F78095822385BB089522B381E07E
:100DD00090E002C0880F991F6A95E2F78095822300
:100DE00082BB0895813051F0813030F0823041F083
:100DF000833041F080E0089589B3089586B3089563
:100E000083B3089580B30895813051F0813030F07C
:100E1000823041F0833079F080E0089589B303C0D7
:100E200086B301C083B390E002C0959587956A951B
:100E3000E2F78170089580B390E002C095958795A0
:100E40006A95E2F7817008956830A0F5813091F0DD
:100E5000813028F08230C9F0833061F521C029B398
:100E600081E090E002C0880F991F6A95E2F7282779
:100E700029BB089526B381E090E002C0880F991F36
:100E80006A95E2F7282726BB089523B381E090E016
:100E900002C0880F991F6A95E2F7282723BB08959F
:100EA00020B381E090E002C0880F991F6A95E2F7B5
:100EB000282720BB0895813059F0813028F08230F6
:100EC00059F0833081F40CC08BB380958BBB0895AF
:100ED00088B3809588BB089585B3809585BB0895B8
:100EE00082B3809582BB08956830A0F5813091F07F
:100EF000813028F08230C9F0833061F521C02BB3F6
:100F000081E090E002C0880F991F6A95E2F7282BD4
:100F10002BBB089528B381E090E002C0880F991F91
:100F20006A95E2F7282B28BB089525B381E090E06D
:100F300002C0880F991F6A95E2F7282B25BB0895F8
:100F400022B381E090E002C0880F991F6A95E2F712
:100F5000282B22BB08958EB59FB59B7F9FBD8EBD6C
:100F60008EB59FB5977F9FBD8EBD8EB59FB5887F8F
:100F70009FBD8EBD8EB59FB584609FBD8EBD8EB565
:100F80009FB5877E9C7F9FBD8EBD8EB59FB59FBD53
:100F90008EBD1DBC1CBC89B79AB7837C90709ABF6C
:100FA00089BF089580915F00909160008068909360
:100FB000600080935F0089B79AB784609ABF89BF49
:100FC00008959BBD8ABD089589B79AB7837C9070B8
:100FD0009ABF89BF089583E066E040E00E9408065A
:100FE0008EB59FB58F7B9FBD8EBD8EB59FB58F7B18
:100FF0009FBD8EBD89B79AB780629ABF89BF089599
:1010000083B78F7783BF83B7877B83BF83B78FEF28
:1010100083BF83B7887F83BF83B7856083BF89B76A
:101020008C7F89BF12BE83B78F7C83BF83B78062FA
:1010300083BF089585B58F7785BD85B5877B85BDD1
:1010400085B58F6B85BD85B5887F85BD85B583608A
:1010500085BD89B78F7389BF83B78F7C83BF83B703
:101060008F6C83BF89B7806889BF089582BF089558
:1010700084BD08958CBF089583BD089590937F012A
:1010800080937E01089590937D0180937C01089563
:101090001F920F920FB60F9211242F933F934F93ED
:1010A0005F936F937F938F939F93AF93BF93EF93D0
:1010B000FF93E0917E01F0917F01309709F009954F
:1010C000FF91EF91BF91AF919F918F917F916F9120
:1010D0005F914F913F912F910F900FBE0F901F90F6
:1010E00018951F920F920FB60F9211242F933F93D2
:1010F0004F935F936F937F938F939F93AF93BF9320
:10110000EF93FF93E0917E01F0917F01309709F01A
:101110000995FF91EF91BF91AF919F918F917F9131
:101120006F915F914F913F912F910F900FBE0F9054
:101130001F9018951F920F920FB60F9211242F93A4
:101140003F934F935F936F937F938F939F93AF934F
:10115000BF93EF93FF93E0917C01F0917D01309775
:1011600009F00995FF91EF91BF91AF919F918F91F8
:101170007F916F915F914F913F912F910F900FBE93
:101180000F901F9018951F920F920FB60F92112477
:101190002F933F934F935F936F937F938F939F937F
:1011A000AF93BF93EF93FF93E0917C01F0917D01AA
:1011B000309709F00995FF91EF91BF91AF919F9101
:1011C0008F917F916F915F914F913F912F910F90F0
:1011D0000FBE0F901F901895EF92FF920F931F93E1
:1011E0007B018C0120E030E040E05FE40E94680C6D
:1011F00088238CF0C801B70120E030E040E05FE4D4
:101200000E94640A0E94980C9B01AC01205030405F
:101210004040504806C0C801B7010E94980C9B018D
:10122000AC01B901CA011F910F91FF90EF90089591
:10123000A0E0B0E0EEE1F9E00C946E0FDC012B01D0
:10124000FA019C91923008F439C1EB018881823017
:1012500008F433C1943069F4843009F02FC1119639
:101260009C9111978981981709F428C1A0E7B0E0F3
:1012700025C1843009F421C18230A9F4923009F0EB
:101280001DC19A01AD0188E0EA010990AE01E901B2
:1012900009929E018150C1F7E201898111969C91CA
:1012A0008923818308C1923009F407C112962D90D9
:1012B0003C901397EB018A819B811496AD90BD9071
:1012C000CD90DC901797EC80FD800E811F819101FD
:1012D000281B390BB90137FF04C066277727621B2B
:1012E000730B603271050CF061C0121613066CF5B9
:1012F00037014801062E04C096948794779467942A
:101300000A94D2F721E030E040E050E004C0220F20
:10131000331F441F551F6A95D2F72150304040407B
:1013200050402E213F2140235123211531054105F5
:10133000510521F021E030E040E050E079018A01E0
:10134000E628F728082919293CC0232BD1F1260EBD
:10135000371E35014601062E04C096948794779473
:1013600067940A94D2F721E030E040E050E004C0F6
:10137000220F331F441F551F6A95D2F7215030406A
:10138000404050402A213B214C215D21211531054F
:101390004105510521F021E030E040E050E05901E5
:1013A0006A01A628B728C828D9280BC0821593053A
:1013B0002CF01C01AA24BB24650103C0EE24FF24E9
:1013C000870111969C91D20111968C91981709F47E
:1013D00045C0992339F0A80197012A193B094C0906
:1013E0005D0906C0A60195012E193F09400B510B5E
:1013F00057FD08C0118233822282248335834683BD
:1014000057831DC081E081833382228288279927F8
:10141000DC01821B930BA40BB50B84839583A683FD
:10142000B7830DC0220F331F441F551F24833583FC
:10143000468357838281938101979383828324819A
:10144000358146815781DA01C9010197A109B109A6
:101450008F5F9F4FAF4FBF4328F30BC09183338201
:101460002282EA0CFB1C0C1D1D1DE482F582068302
:10147000178383E08083248135814681578157FF1C
:101480001AC0C901AA2797FDA095BA2F8170907044
:10149000A070B0705695479537952795822B932B62
:1014A000A42BB52B84839583A683B78382819381F4
:1014B000019693838283DF0101C0D201CD01CDB7B4
:1014C000DEB7E2E10C948A0FA0E2B0E0EAE6FAE0CF
:1014D0000C947A0F69837A838B839C832D833E835C
:1014E0004F835887E9E0EE2EF12CEC0EFD1ECE0165
:1014F0000196B7010E94890E8E010F5E1F4FCE012B
:101500000596B8010E94890E8A8991E089278A8B05
:10151000C701B801AE01475E5F4F0E9418090E94E3
:10152000B40DA096E6E00C94960FA0E2B0E0EBE9D3
:10153000FAE00C947A0F69837A838B839C832D83E2
:101540003E834F835887F9E0EF2EF12CEC0EFD1E01
:10155000CE010196B7010E94890E8E010F5E1F4FCA
:10156000CE010596B8010E94890EC701B801AE01EF
:10157000475E5F4F0E9418090E94B40DA096E6E0F6
:101580000C94960FA0E2B0E0E8ECFAE00C946E0F39
:1015900069837A838B839C832D833E834F83588713
:1015A000CE010196BE01675F7F4F0E94890ECE017A
:1015B0000596BE016F5E7F4F0E94890E998592301D
:1015C00088F089898230C8F0943019F4823051F45F
:1015D00004C0843029F4923081F480E790E0C6C0E2
:1015E000923049F420E09A858A89981321E02A876D
:1015F000CE010996BBC0823049F420E09A858A89E1
:10160000981321E02A8BCE014196B0C02D843E84F0
:101610004F8458886D887E888F88988CEE24FF24AC
:101620008701AA24BB24650140E050E060E070E03F
:10163000E0E0F0E0C10181709070892BE9F0E60CE8
:10164000F71C081D191D9A01AB012A0D3B1D4C1DED
:101650005D1D80E090E0A0E0B0E0E614F70408052E
:10166000190520F481E090E0A0E0B0E0BA01A90102
:10167000480F591F6A1F7B1FAA0CBB1CCC1CDD1C0A
:1016800097FE08C081E090E0A0E0B0E0A82AB92A67
:10169000CA2ADB2A3196E032F10549F0660C771C44
:1016A000881C991C5694479437942794C3CFFA8585
:1016B000EA892B893C898B859C85280F391F2E5FF1
:1016C0003F4F17C0CA0181709070892B61F0169549
:1016D0000795F794E79480E090E0A0E0B0E8E82A6E
:1016E000F92A0A2B1B2B76956795579547952F5FFF
:1016F0003F4F77FDE7CF0CC0440F551F661F771F84
:1017000017FD4160EE0CFF1C001F111F21503040DF
:10171000403090E0590790E0690790E4790760F362
:101720002B8F3C8FDB01CA018F779070A070B07057
:1017300080349105A105B10561F447FD0AC0E114AB
:10174000F1040105110529F0405C5F4F6F4F7F4F99
:1017500040781A8EFE1711F081E08A8F4D8F5E8FD0
:101760006F8F78A383E0898FCE0149960E94B40DD4
:10177000A096E2E10C948A0FA8E1B0E0E2ECFBE075
:101780000C94760F69837A838B839C832D833E83AD
:101790004F835887B9E0EB2EF12CEC0EFD1ECE01E5
:1017A0000196B7010E94890E8E010F5E1F4FCE0178
:1017B0000596B8010E94890E2985223008F47EC062
:1017C0003989323010F4B8017CC08A859A8989271A
:1017D0008A87243011F0223031F4231709F06EC0CB
:1017E00060E770E06EC0343039F41D861E861F86B7
:1017F000188A1C861B8604C0323021F484E0898755
:10180000B7015FC02B853C858B899C89281B390BD0
:101810003C872B87ED84FE840F851889AD88BE88B0
:10182000CF88D88CEA14FB040C051D0540F4EE0C9F
:10183000FF1C001F111F215030403C872B8720E0E8
:1018400030E040E050E080E090E0A0E0B0E460E014
:1018500070E0EA14FB040C051D0540F0282B392B21
:101860004A2B5B2BEA18FB080C091D09B695A795B6
:1018700097958795EE0CFF1C001F111F6F5F7F4F20
:101880006F31710531F7DA01C9018F779070A0705F
:10189000B07080349105A105B10561F427FD0AC03F
:1018A000E114F1040105110529F0205C3F4F4F4F71
:1018B0005F4F20782D873E874F87588BBE01675F2B
:1018C0007F4FCB010E94B40D6896EAE00C94920F12
:1018D000A8E1B0E0EEE6FCE00C947A0F69837A832D
:1018E0008B839C832D833E834F83588789E0E82E2A
:1018F000F12CEC0EFD1ECE010196B7010E94890E5F
:101900008E010F5E1F4FCE010596B8010E94890E11
:101910008985823040F08989823028F0C701B8017A
:101920000E94010F01C08FEF6896E6E00C94960FBD
:10193000ACE0B0E0EEE9FCE00C947E0F69837A83C2
:101940008B839C83CE010196BE016B5F7F4F0E940B
:10195000890E8D81823061F1823050F1843021F422
:101960008E81882351F12EC02F81388537FD20C00C
:101970006E812F3131051CF06623F9F023C08EE112
:1019800090E0821B930B29853A854B855C8504C0CA
:1019900056954795379527958A95D2F76623B1F0E6
:1019A00050954095309521953F4F4F4F5F4F0EC05A
:1019B00020E030E040E050E009C02FEF3FEF4FEF74
:1019C0005FE704C020E030E040E050E8B901CA0120
:1019D0002C96E2E00C949A0FA8E0B0E0E2EFFCE075
:1019E0000C94760F7B018C016115710581059105C1
:1019F00019F482E0898360C083E089838EE1C82E78
:101A0000D12CDC82CB82ED82FE820F831887C80145
:101A1000B7010E94650DFC013197F7FF3BC02227FB
:101A200033272E1B3F0B57016801022E04C0D694AA
:101A3000C794B794A7940A94D2F740E050E060E0CE
:101A400070E081E090E0A0E0B0E004C0880F991F52
:101A5000AA1FBB1F2A95D2F70197A109B1098E21B0
:101A60009F21A023B1230097A105B10521F041E0FA
:101A700050E060E070E04A295B296C297D294D83A4
:101A80005E836F8378878EE190E08E1B9F0B9C8333
:101A90008B8312C0309781F00E2E04C0EE0CFF1C19
:101AA000001F111F0A94D2F7ED82FE820F83188760
:101AB000CE1ADF0ADC82CB821A82CE0101960E9406
:101AC000B40D2896EAE00C94920FEF92FF920F93D8
:101AD0001F937B018C0180E0E81680E0F80681E02E
:101AE000080780E0180788F48FEFE816F104010575
:101AF000110531F028F088E090E0A0E0B0E017C0D8
:101B000080E090E0A0E0B0E012C080E0E81680E065
:101B1000F80680E0080781E0180728F088E190E0E7
:101B2000A0E0B0E004C080E190E0A0E0B0E020E2FE
:101B300030E040E050E0281B390B4A0B5B0B04C03F
:101B400016950795F794E7948A95D2F7F701E85828
:101B5000FF4F8081281B310941095109C9011F919B
:101B60000F91FF90EF900895DF92EF92FF920F9305
:101B70001F93FC01E480F58006811781D18080816C
:101B8000823048F480E090E0A0E1B0E0E82AF92A51
:101B90000A2B1B2BA5C0843009F49FC0823021F48E
:101BA000EE24FF24870105C0E114F10401051105AD
:101BB00019F4E0E0F0E096C0628173819FEF623833
:101BC00079070CF05BC022E83FEF261B370B2A3168
:101BD00031052CF020E030E040E050E02AC0B801B0
:101BE000A701022E04C076956795579547950A94EC
:101BF000D2F781E090E0A0E0B0E004C0880F991F28
:101C0000AA1FBB1F2A95D2F70197A109B1098E21FE
:101C10009F21A023B1230097A105B10521F081E008
:101C200090E0A0E0B0E09A01AB01282B392B4A2BC1
:101C30005B2BDA01C9018F779070A070B07080348F
:101C40009105A105B10539F427FF09C0205C3F4F7C
:101C50004F4F5F4F04C0215C3F4F4F4F5F4FE0E05D
:101C6000F0E02030A0E03A07A0E04A07A0E45A07DD
:101C700010F0E1E0F0E079018A0127C060387105D9
:101C800064F5FB01E158FF4FD801C7018F779070D1
:101C9000A070B07080349105A105B10539F4E7FE5C
:101CA0000DC080E490E0A0E0B0E004C08FE390E0DD
:101CB000A0E0B0E0E80EF91E0A1F1B1F17FF05C0C9
:101CC00016950795F794E794319687E01695079552
:101CD000F794E7948A95D1F705C0EE24FF24870195
:101CE000EFEFF0E06E2F679566276795902F9F774F
:101CF000D794DD24D7948E2F8695492F462B582FC5
:101D00005D29B701CA011F910F91FF90EF90DF90FD
:101D10000895FC01DB01408151812281622F6F77A0
:101D200070E0221F2227221F9381892F880F822B88
:101D3000282F30E0991F9927991F11969C9311978E
:101D400021153105A9F5411551056105710511F4FC
:101D500082E037C082E89FEF13969C938E93129790
:101D60009A01AB0167E0220F331F441F551F6A958C
:101D7000D1F783E08C930DC0220F331F441F551FF2
:101D800012968D919C911397019713969C938E9325
:101D90001297203080E0380780E0480780E4580739
:101DA00058F314962D933D934D935C931797089594
:101DB0002F3F310579F4411551056105710519F47D
:101DC00084E08C93089564FF03C081E08C9312C07B
:101DD0001C9210C02F57304013963C932E931297AD
:101DE00083E08C9387E0440F551F661F771F8A9509
:101DF000D1F7706414964D935D936D937C93179710
:101E000008951F93DC01FB019C91923008F447C0B8
:101E10008081823008F443C0943051F411961C91B3
:101E2000843099F58181682F70E0611B71093FC092
:101E3000843021F0923031F48230B9F181818823ED
:101E400089F12DC011961C9111978230F1F081819A
:101E50001817D9F412962D913C9113978281938192
:101E60008217930794F028173907BCF014968D91C8
:101E70009D910D90BC91A02D248135814681578183
:101E8000281739074A075B0718F4112341F00AC0E5
:101E900082179307A407B50740F4112319F061E0F6
:101EA00070E005C06FEF7FEF02C060E070E0CB0133
:101EB0001F910895AA1BBB1B51E107C0AA1FBB1F9E
:101EC000A617B70710F0A61BB70B881F991F5A95C6
:101ED000A9F780959095BC01CD0108952F923F926E
:101EE0004F925F926F927F928F929F92AF92BF922A
:101EF000CF92DF92EF92FF920F931F93CF93DF93D6
:101F0000CDB7DEB7CA1BDB0B0FB6F894DEBF0FBE32
:101F1000CDBF09942A88398848885F846E847D847F
:101F20008C849B84AA84B984C884DF80EE80FD8081
:101F30000C811B81AA81B981CE0FD11D0FB6F894F7
:101F4000DEBF0FBECDBFED010895FB019F01E894F8
:101F50004230C4F04532B4F44A3029F497FB1EF401
:101F6000909581959F4F642F77270E945A0F805D2F
:101F70008A330CF0895D8193CB010097A1F716F4A9
:101F80005DE251931082C9010C94C60FDC01FC0183
:101F9000672F71917723E1F7329704C07C916D939D
:101FA00070836291AE17BF07C8F30895F894FFCF0E
:101FB00046726571203D200044757479203D2000F3
:101FC0000000000000000000000102020303030300
:101FD00004040404040404040505050505050505B9
:101FE0000505050505050505060606060606060699
:101FF0000606060606060606060606060606060681
:102000000606060606060606070707070707070768
:102010000707070707070707070707070707070750
:102020000707070707070707070707070707070740
:102030000707070707070707070707070707070730
:102040000707070707070707080808080808080818
:102050000808080808080808080808080808080800
:1020600008080808080808080808080808080808F0
:1020700008080808080808080808080808080808E0
:1020800008080808080808080808080808080808D0
:1020900008080808080808080808080808080808C0
:1020A00008080808080808080808080808080808B0
:1020B00008080808080808080808080808080808A0
:0820C0000808080808080808D8
:00000001FF
